:020000040800F2
:1000000098040020A901000873110008810F00085E
:1000100071110008B5020008551400080000000026
:100020000000000000000000000000007711000840
:10003000B7020008000000007511000879110008DF
:10004000C3010008C3010008C3010008C301000880
:10005000C3010008C3010008B9020008BF0200087C
:10006000C5020008C3010008C3010008C30100085D
:10007000C3010008C3010008C3010008C301000850
:10008000C3010008C3010008C3010008000000000C
:10009000000000000000000000000000C301000894
:1000A000C3010008C3010008C3010008C301000820
:1000B000C3010008C30100081D120008C3010008A5
:1000C000C3010008C3010008C3010008C301000800
:1000D000C3010008C3010008C301000800000000BC
:1000E000C3010008C3010008C301000800000000AC
:1000F000000000000000000000000000C301000834
:1001000000000000C3010008C3010008C30100088B
:1001100000000000000000000000000000000000DF
:10012000C3010008C3010008C3010008C30100089F
:10013000C3010008000000000000000000000000F3
:10014000000000000000000000000000C3010008E3
:10015000C3010008C3010008C3010008C30100086F
:10016000C3010008C30100080000000000000000F7
:10017000000000000000000000000000000000007F
:1001800000000000C30100080000000000000000A3
:10019000C3010008DFF80CD000F07AF800480047EF
:1001A0009514000898040020064880470648004738
:1001B000FEE7FEE7FEE7FEE7FEE7FEE7FEE7FEE717
:1001C000FEE7FEE701120008950100082DE9F05F47
:1001D0000546002092469B468846064681464024B6
:1001E0001BE0284641464746224600F041F8534668
:1001F0005A46C01A914110D311461846224600F0C3
:1002000028F82D1A67EB01084F46224601200021ED
:1002100000F01FF817EB00094E41201EA4F1010465
:10022000DFDC484631462A464346BDE8F09FD2B25D
:1002300001E000F8012B491EFBD270470022F6E7CF
:1002400010B513460A4604461946FFF7F0FF20464C
:1002500010BD202A04DB203A00FA02F1002070478A
:100260009140C2F1200320FA03F3194390407047F4
:10027000202A04DB203A21FA02F00021704721FAFB
:1002800002F3D040C2F12002914008431946704762
:10029000064C074D06E0E06840F0010394E80700D3
:1002A00098471034AC42F6D3FFF778FF20150008CA
:1002B00040150008FEE77047012000F029B8022031
:1002C00000F026B8042000F023B8704770B504464B
:1002D00000F0FEF80546601C02D004480078044493
:1002E00000F0F6F8401BA042FAD370BD08000020D1
:1002F00010B5012807D181020122034800F0E3F87C
:1003000002490120086010BD0008024000000020E2
:10031000044910B50A68024202D00860FFF7E8FFFE
:1003200010BD0000143C01402DE9F84F00224FF0B1
:10033000010803254FF00F0E0B6808FA02F4234062
:10034000A34271D14E68012E05D0022E03D0112E8A
:1003500001D0122E15D18668570005FA07FC26EA4F
:100360000C06D1F80CC00CFA07FC4CEA060CC0F8DD
:1003700008C04668A6430C79C4F300149440344383
:100380004460C668570005FA07FC8C6826EA0C062C
:10039000BC403443C4604C68022C01D0122C13D1F1
:1003A000D40800EB8404A346D4F8209054074FEA05
:1003B000D46A0EFA0AF629EA06090E6906FA0AF65E
:1003C00046EA0906CBF8206004680E7924EA0C049A
:1003D00006F00306BE40264306604C68E40056D58E
:1003E0002E4C266846F480462660246822F00306D8
:1003F00004F4804400942A4C3444A446D4F80848B9
:100400009607370F0EFA07F6B443264EB04201D1D5
:10041000002615E0244EB04201D1012610E0234E03
:10042000B04202D102260BE031E0214EB04201D1B0
:10043000032605E01F4EB04201D1042600E0072646
:10044000BE402643CCF808681B4E34684F689C4376
:10045000FF0300D51C433460174E361D34684F68C7
:100460009C43BF0300D51C433460134E08363468E8
:100470004F689C43FF0200D51C4334600E4E0C367F
:1004800034684F689C43BF0200D51C433460521C43
:10049000102AFFF451AFBDE8F88F00004438024045
:1004A0000030014000000240000402400008024009
:1004B000000C024000100240003C0140006908406E
:1004C00000D0012070470AB1816170470904FBE741
:1004D00001488068704700000800002002488168D9
:1004E0000278114481607047080000200B4810B565
:1004F000016841F400710160016841F480610160AC
:10050000016841F480710160032000F071F800205F
:1005100000F006F800F024F8002010BD003C024076
:1005200070B50D4D04464FF47A712878B1FBF0F0A8
:100530000A490968B1FBF0F000F004FB48B9102C3F
:1005400007D200222146501E00F032F800206C60D5
:1005500070BD012070BD00000800002014000020C4
:100560000B4882B0016841F480410160006800F4EA
:10057000804000900648001F016841F080510160F2
:10058000006800F080500090072002B000F030B802
:1005900044380240002809DB00F01F02012191408D
:1005A0004009800000F1E020C0F800117047000011
:1005B000F0B40E4B1B680C46C3F30223C3F10705CE
:1005C000042D00D90425191D072901D2002300E0BC
:1005D000DB1E012606FA05F1491E214099409E4086
:1005E000761E16403143F0BC00F035BF0CED00E044
:1005F000064900F0070208684FF6FF03184040EA7A
:100600000220034A10430860704700000CED00E030
:100610000000FA052DE9F0470E46050065D0DFF829
:100620001481D8F80000F7B200F00F00B04207D2F2
:1006300088F80070D8F8000000F00F00B04254D1E4
:1006400028683D4C810712D5400703D5206840F447
:10065000E05020602878000703D5206840F460400F
:1006600020602068A96820F0F00008432060287806
:10067000C0072DD0304968680839012812D00228F7
:1006800013D0032811D00968890700292DDA2168C1
:1006900021F0030101432160FFF71AFF814641F277
:1006A000883A0EE009688903EFE709688901ECE7F9
:1006B000FFF70EFFA0EB0901514502D90320BDE869
:1006C000F0872068696800F00C00B0EB810FEFD173
:1006D000D8F80010404601F00F01B14207D9077069
:1006E000006800F00F00B04201D00120E7E7287851
:1006F000400705D52068E96820F4E05008432060F1
:100700002878000706D52068296920F4604040EA6F
:10071000C100206000F038F82168084AC1F30311D5
:10072000515CC8400649086006480068FFF7F8FEBB
:100730000020C4E7003C02400838024008150008C9
:10074000140000200C0000200448054900680968D6
:10075000044AC1F38221515CC84070471400002054
:10076000083802401815000804480549006809685F
:10077000044AC1F34231515CC84070471400002064
:100780000838024018150008154810B5006810F028
:100790000C02144813D04110042A0FD0082A0ED19D
:1007A0000F4C241F2268236802F03F025B0207D52A
:1007B0002068C0F38810A0FB010106E0084610BDC8
:1007C0002168C1F38811A1FB00010023FFF7FEFCA3
:1007D0002168C1F30141491C4900B0FBF1F010BD93
:1007E000083802400024F4002DE9F84F04006ED0D0
:1007F0002078DFF83C93C007A9F104054AD009F13D
:1008000004000168C1F38101012908D00068C0F328
:10081000810002280AD1D9F80000400206D52868D4
:10082000800337D560680028E1D033E06068B0F518
:10083000803F10D0B0F5A02F286810D020F4803071
:100840002860286820F4802028606068A8B1FFF73D
:100850003FFE06460DE0286840F48030F4E740F49F
:1008600080202860F7E700BFFFF732FE801B642876
:1008700073D828688003F7D50CE0FFF729FE0646F9
:1008800005E000BFFFF724FE801B6428F0D828682D
:100890008003F7D42078DFF89C8280074FF0000AAD
:1008A0003ED5A348001D016811F00C0F08D0006868
:1008B000C0F3810002280BD1D9F80000400207D410
:1008C0002868800716D5E068012800D112E02BE1E6
:1008D000E068B8B10120C8F80000FFF7F9FD06464E
:1008E00005E000BFFFF7F4FD801B0228C0D8286890
:1008F0008007F7D52868216920F0F80040EAC10098
:1009000028600DE0C8F800A0FFF7E2FD064604E00D
:10091000FFF7DEFD801B02281FD828688007F7D468
:100920002078000722D5824E83486169703671B104
:1009300001210160FFF7CCFD074604E0FFF7C8FD89
:10094000C01B022809D830688007F7D50EE0C0F830
:1009500000A0FFF7BDFD074605E082E0FFF7B8FD08
:10096000C01B02287DD830688007F7D42078400764
:1009700068D5DFF8BCB100270BF13C0BDBF80000B9
:10098000C0000BD4DBF8001041F08051CBF8001010
:10099000DBF80000012700F080500090674E3068BF
:1009A000C00510D4306840F480703060FFF790FDCF
:1009B000009005E0FFF78CFD0099401A022850D8FE
:1009C0003068C005F6D55A4EA0686C3601280FD0A5
:1009D0000528306810D020F001003060306820F029
:1009E00004003060A068B8B1FFF772FD00900FE01E
:1009F000306840F00100F4E740F004003060F7E7B1
:100A0000FFF766FD0099411A41F28830814266D8AD
:100A100030688007F4D50EE0FFF75AFD009007E03C
:100A2000FFF756FD0099411A41F28830814256D8AD
:100A300030688007F4D42FB1DBF8001021F080512A
:100A4000CBF80010A069C8B33949091D0968C1F382
:100A5000810102294AD00228504607D0C8F8600018
:100A600000E03CE0FFF734FD04463BE04746C8F8B1
:100A70006000FFF72DFD064605E000BFFFF728FDEB
:100A8000801B02282BD828688001F7D4D4E90701FD
:100A90000843A16A2A4A490802EB0141626A41EA15
:100AA0008211084394F82C1040EA0161C9F8001043
:100AB00001203866FFF70CFD044606E036E000BF73
:100AC000FFF706FD001B022809D828688001F7D52A
:100AD0002CE000BFFFF7FCFC001B022802D903201A
:100AE000BDE8F88F28688001F4D41FE00128F7D012
:100AF000D9F80000E26900F48001914214D1226A21
:100B000000F03F0191420FD147F6C071626A014087
:100B1000914209D1A26A00F44031914204D1E16AC4
:100B200000F07060884201D00120D9E70020D7E7AB
:100B30000438024000004742800E474200700040E7
:100B40000000FFFF10B5401EB0F1807F01D30120EF
:100B500010BD4FF0E02460610F21601700F07BFCB6
:100B60000020A06107202061002010BD7047704761
:100B700070B590F83C20012A2CD0012480F83C402C
:100B8000022280F83D2003685A689D6822F07006B2
:100B90000A6832435A60104B02689A420ED0B2F192
:100BA000804F0BD00D4B9A4208D00D4B9A4205D086
:100BB0000C4B9A4202D00C4B9A4204D1496825F062
:100BC00080031943916080F83D40002180F83C107B
:100BD000084670BD022070BD0000014000040040C6
:100BE00000080040000C00400040014010B5040027
:100BF00003D094F83D0010B107E0012010BD0020A3
:100C000084F83C00204600F00DF8022084F83D00F6
:100C1000211D206800F008FB012084F83D00002021
:100C200010BD000008B500680B49884212D10B487E
:100C3000016841F0040101600068002200F0040036
:100C4000009011461E20FFF7B3FCBDE808401E20AF
:100C5000FFF7A0BC08BD000000080040403802407B
:100C600070B5044690F83C00012817D0012584F89F
:100C70003C50022084F83D002068826822F0770210
:100C800022F47F4282600868502830D00DDC202892
:100C90004DD005DC98B310283BD148E0022070BD50
:100CA000302844D0402834D139E0602828D070283A
:100CB00006D0B0F5805F2CD0B0F5005F29D10AE0F6
:100CC000CB68D1E90121206800F0FAFA2068816838
:100CD00041F0770109E0CB68D1E90121206800F0FB
:100CE000EFFA2068816841F48041816011E0CA68B0
:100CF0004968206800F0F6FA5021206807E016E005
:100D0000CA684968206800F0FEFA6021206800F097
:100D1000E1FA84F83D50002084F83C0070BDCA68B8
:100D20004968206800F0DEFA40212068EFE7226879
:100D300001461046EBE7704770B50446006801694C
:100D40004FF00005C943890715D4C168C943890715
:100D500011D4E91E01610120207720688069800795
:100D6000204602D0FFF7E7FF04E000F098F82046A5
:100D700000F096F8257720680169C943490717D420
:100D8000C168C943490713D46FF00401016102200F
:100D900020772068806910F4407F204602D0FFF75A
:100DA000CAFF04E000F07BF8204600F079F82577D0
:100DB00020680169C943090716D4C168C9430907F6
:100DC00012D46FF008010161042020772068C06907
:100DD0008007204602D0FFF7AEFF04E000F05FF886
:100DE000204600F05DF8257720680169C943C906EF
:100DF00017D4C168C943C90613D46FF0100101614B
:100E0000082020772068C06910F4407F204602D077
:100E1000FFF791FF04E000F042F8204600F040F8B0
:100E2000257720680169C943C90708D1C168C9434A
:100E3000C90704D1891E0161204600F033F82068FB
:100E40000169C943090609D4C168C943090605D423
:100E50006FF0800101612046FFF788FE206801697C
:100E6000C943490609D4C168C943490605D46FF08E
:100E700040010161204600F01DF820680169C94366
:100E800089060BD4C168C943890607D46FF02001D5
:100E900001612046BDE87040FFF769BE70BD704734
:100EA0007047000002484168491C416070470000DB
:100EB00000000020704770B5040004D094F8390099
:100EC000002510B106E0012070BD84F8385020469E
:100ED00000F022F8242084F839002068C16821F449
:100EE0000051C160204600F021FA2068016921F418
:100EF000904101612068416921F02A014161206827
:100F0000C16841F40051C160E563202084F83900D4
:100F100084F83A00002070BD10B586B00446142154
:100F20006846FFF78BF91349206888421FD11248A1
:100F30000021026842F400320260006800F40030D0
:100F400005900D481038026842F001020260006806
:100F500000F0010005900C2000900220CDE9010175
:100F60000720CDE9031069460448FFF7DDF906B014
:100F700010BD000000440040403802400000024024
:100F8000FEE700002DE9F04387B014216846FFF723
:100F900055F948480024016841F0040101600168E6
:100FA00001F004010591016841F0800101600168D0
:100FB00001F080010591016841F0010101600168C3
:100FC00001F001010591016841F00801016001682B
:100FD00001F008010591016841F00201016000681B
:100FE000354F00F002000590002220213846FFF71F
:100FF0006AFADFF8C8803E15002231464046FFF706
:1010000062FADFF8BC90002204214846FFF75BFA41
:10101000F00000902B48CDE9010469464046FFF7F7
:1010200083F9052000902848CDE90104694640462F
:10103000FFF77AF9022000902448CDE901046946BF
:101040004046FFF771F9202000900125CDE90154B9
:10105000694638460394FFF767F90096CDE90154D5
:10106000694640460394FFF75FF904200090CDE9FC
:101070000154694648460394FFF756F90022114689
:101080000620FFF795FA0620FFF784FA00221146A2
:101090000720FFF78DFA0720FFF77CFA00221146A0
:1010A0000820FFF785FA0820FFF774FA07B0BDE8BB
:1010B000F083000030380240000002400008024087
:1010C000000C02400000211000001110000031103F
:1010D00010B586B00024174800940194029403943C
:1010E00004941349059401604AF20F41C0E90114C8
:1010F0000121C0E903148461FFF778FD08B1FFF70F
:10110000E4F84FF48050009069460A48FFF7A8FDC4
:1011100008B1FFF7DAF8049404A906480594FFF72C
:1011200027FD002801D0FFF7D0F806B010BD000061
:1011300000080040180000200C4810B50A49016062
:101140004FF4E1314160002181600C22C160C0E9AF
:1011500004128161C161FFF7AEFE002803D0BDE833
:101160001040FFF7B2B810BD004400405800002006
:10117000FEE7704770477047FFF7B0B930B593B0DE
:1011800030216846FFF75AF814210CA8FFF756F8EB
:1011900019480025016841F080510160006800F0A5
:1011A000805011901548016821F4404141F40041FC
:1011B00001600068022400F440401190012000907A
:1011C000000401908001CDE90640042008905420DD
:1011D000CDE9090407200B906846FFF705FB0CA931
:1011E0000F2081E83100E002CDE90F0502210CA8B3
:1011F000FFF710FA13B030BD4038024000700040D5
:101200000548016841F47001016003494FF0006036
:10121000803908607047000088ED00E00148FFF762
:101220008BBD000018000020F0B502681D4B1E4C5D
:101230009F031E4D1E4E984207D0B84205D0A042D3
:1012400003D0A84201D0B04204D122F0700C4A6809
:1012500042EA0C02984210D0B8420ED0A0420CD004
:10126000A8420AD0B04208D0124CA04205D0124C7D
:10127000A04202D0114CA04203D122F44074CA68AB
:1012800022434C6922F08002224302608A68C262D3
:101290000A688262984201D10969016301214161B2
:1012A000F0BD0000000001400004004000080040C4
:1012B000000C004000400140004401400048014053
:1012C00010B5846842EA032224F47F440A4322438F
:1012D000826010BD826822F070020A4342F007016A
:1012E0008160704710B5036A046A24F00104046247
:1012F000846924F0F00444EA021423F00A020A4349
:101300008461026210BD10B5036A23F0100303620A
:101310008369046A23F4704343EA023224F0A00391
:1013200043EA01118261016210BD00002DE9F04124
:10133000044600680169E26821F4405111430161EB
:101340002169A068E2690843616911430843216883
:10135000CA6849F20C639A430243CA602068416933
:10136000A26921F4407111434161E06919276425A4
:101370003226B0F5004F354A354920684FF0000855
:1013800006D0884201D0904236D1FFF7EDF935E022
:10139000884201D0904202D1FFF7E6F901E0FFF761
:1013A000D3F961684A18A0FB070148EB0803FEF770
:1013B0000DFF0146B0FBF5F00201B1FBF5F06FF057
:1013C0001803584301EB800006EBC000B0FBF5F0BA
:1013D00000F0F80002EB4002B1FBF5F0584301EBDE
:1013E000800006EBC000B0FBF5F000F007002168BC
:1013F00010448860BDE8F081FFF7A6F961688B0FA3
:101400008A00A0FB0701FEF7E1FE0146B0FBF5F004
:101410006FF01802504301EB800006EB0010B0FBA8
:10142000F5F000F0F002B1FBF5F002EB0012B1FBB9
:10143000F5F06FF01803584301EB800006EB001045
:10144000B0FBF5F000F00F00D1E700000014014000
:1014500000100140FEE70907090E002804DB00F137
:10146000E02080F80014704700F00F0000F1E02049
:1014700080F8141D704702E008C8121F08C1002A36
:10148000FAD170477047002001E001C1121F002A05
:10149000FBD17047FFF72AF8FFF770FEFFF772FDE8
:1014A000FFF716FEFFF748FE144CDFF85480154D89
:1014B0004FF4005700264FF4806939462046FEF766
:1014C000FDFF48B10122494620462E60FEF7FBFF92
:1014D0000022042140460EE01420FEF7F7FE012210
:1014E00004214046FEF7EFFF286808B1012200E022
:1014F000002249462046FEF7E6FFDEE700080240EC
:10150000000C02400000002000000000000000006D
:101510000102030406070809000000000102030499
:101520004015000800000020180000007614000894
:1015300058150008180000208004000086140008D8
:10154000000000000000000001000000100000008A
:08155000000000000024F4007B
:040000050800019559
:00000001FF
