:020000040800F2
:10000000A8040020A90100085B1400086D12000874
:10001000591400081D0500083D17000800000000E5
:100020000000000000000000000000005F14000855
:100030001F050008000000005D140008611400089E
:10004000C3010008C3010008C3010008C301000880
:10005000C3010008C30100082105000827050008A6
:100060002D050008C3010008C3010008C3010008F2
:10007000C3010008C3010008C3010008C301000850
:10008000C3010008C3010008C3010008000000000C
:10009000000000000000000000000000C301000894
:1000A000C3010008C3010008C3010008C301000820
:1000B000C3010008C301000805150008C3010008BA
:1000C000C3010008C3010008C3010008C301000800
:1000D000C3010008C3010008C301000800000000BC
:1000E000C3010008C3010008C301000800000000AC
:1000F000000000000000000000000000C301000834
:1001000000000000C3010008C3010008C30100088B
:1001100000000000000000000000000000000000DF
:10012000C3010008C3010008C3010008C30100089F
:10013000C3010008000000000000000000000000F3
:10014000000000000000000000000000C3010008E3
:10015000C3010008C3010008C3010008C30100086F
:10016000C3010008C30100080000000000000000F7
:10017000000000000000000000000000000000007F
:1001800000000000C30100080000000000000000A3
:10019000C3010008DFF80CD000F0AEF900480047BA
:1001A0007D170008A804002006488047064800473D
:1001B000FEE7FEE7FEE7FEE7FEE7FEE7FEE7FEE717
:1001C000FEE7FEE7E9140008950100082DE9F05F5D
:1001D0000546002092469B468846064681464024B6
:1001E0001BE0284641464746224600F0E0F85346C9
:1001F0005A46C01A914110D311461846224600F0C3
:10020000C7F82D1A67EB01084F462246012000214E
:1002100000F0BEF817EB00094E41201EA4F10104C6
:10022000DFDC484631462A464346BDE8F09FD2B25D
:1002300001E000F8012B491EFBD270470022F6E7CF
:1002400010B513460A4604461946FFF7F0FF20464C
:1002500010BD2DE9FE4F81EA030404F0004421F0B3
:10026000004100944FF0000B23F0004350EA0104DA
:100270005ED052EA03045BD0C3F30A54C1F30A55BB
:100280002C44A4F2F3340194A0FB0254C1F31301F3
:1002900041F48011C3F3130343F4801301FB0244C0
:1002A00000FB034E840A970A44EA815447EA8357C5
:1002B000A4FB076802958D0A05FB07854FEA932C7E
:1002C00004FB0C542705029D4FEA065847EA1637EF
:1002D000B5EB08056EEB070C870E920E47EA811707
:1002E00042EA8312A7FB0201B6EB0B0164EB0004A8
:1002F0002B0D43EA0C335E1844EB1C50DA46514692
:10030000E7FB0201C5F313044FEA0B3343EA14532E
:100310004FEA0432019C43EA0603A4F10C04029460
:10032000009CCDE900B400F098F803B0BDE8F08F70
:1003300000200146F9E70EB5C10F80EAE0700844DD
:10034000CA07002140F233438DE80E000A460B46EF
:1003500000F083F803B000BD01F0004330B421F099
:10036000004150EA010206D00A0DA2F56072C1F305
:100370001301002A02DC30BC00207047440F44EA1D
:10038000C104C100E01830BC00EBC25000F01FB83F
:10039000202A04DB203A00FA02F100207047914045
:1003A000C2F1200320FA03F3194390407047202A3A
:1003B00004DB203A21FA02F00021704721FA02F30F
:1003C000D040C2F1200291400843194670470029ED
:1003D000A8BF7047401C490008BF20F001007047CB
:1003E00010B4B0FA80FC00FA0CF050EA010404BF2B
:1003F00010BC704749B1CCF1200421FA04F411FA81
:100400000CF118BF012121430843A3EB0C01CB1DC4
:100410004FEA00614FEA102042BF002010BC704735
:1004200000EBC35010440029A4BF10BC7047401C0F
:10043000490008BF20F0010010BC704710B5141E21
:1004400073F1000408DA401C41F1000192185B418D
:100450001A4301D120F0010010BD2DE9F04D924664
:100460009B4611B1B1FA81F202E0B0FA80F220327B
:100470009046FFF78DFF04460F4640EA0A0041EA26
:100480000B0153465A46084313D0114653EA010064
:1004900019D0C8F140025046FFF789FF05460E46C5
:1004A000504659464246FFF773FF084305D00120E6
:1004B00004E020463946BDE8F08D0020054346EAB9
:1004C000E0762C4337430A986305E40AA0EB080062
:1004D0000022FD0A44EA47540A3002D500200146B2
:1004E000E9E7010510196941DDE90845001969418D
:1004F000BDE8F04DA2E70000064C074D06E0E068BD
:1005000040F0010394E8070098471034AC42F6D35A
:10051000FFF744FE2018000840180008FEE7704767
:10052000012000F045B8022000F042B8042000F09D
:100530003FB8704770B5044600F01AF90546601CD4
:1005400002D004480078044400F012F9401BA04295
:10055000FAD370BD1400002010B501281CD181020F
:1005600001220E4800F0FFF80D4CA068E0600D4835
:1005700000F0D7FC6168E068401AFFF7DCFE9FEDF1
:100580000A1B53EC112BFFF764FEFFF7E5FE206119
:100590000020A0600120206010BD00000008024083
:1005A0000000002024000020DBB66DDBB66DF53FB7
:1005B000044910B50A68024202D00860FFF7CCFF78
:1005C00010BD0000143C01402DE9F84F00224FF00F
:1005D000010803254FF00F0E0B6808FA02F42340C0
:1005E000A34271D14E68012E05D0022E03D0112EE8
:1005F00001D0122E15D18668570005FA07FC26EAAD
:100600000C06D1F80CC00CFA07FC4CEA060CC0F83A
:1006100008C04668A6430C79C4F3001494403443E0
:100620004460C668570005FA07FC8C6826EA0C0689
:10063000BC403443C4604C68022C01D0122C13D14E
:10064000D40800EB8404A346D4F8209054074FEA62
:10065000D46A0EFA0AF629EA06090E6906FA0AF6BB
:1006600046EA0906CBF8206004680E7924EA0C04F7
:1006700006F00306BE40264306604C68E40056D5EB
:100680002E4C266846F480462660246822F0030635
:1006900004F4804400942A4C3444A446D4F8084816
:1006A0009607370F0EFA07F6B443264EB04201D133
:1006B000002615E0244EB04201D1012610E0234E61
:1006C000B04202D102260BE031E0214EB04201D10E
:1006D000032605E01F4EB04201D1042600E00726A4
:1006E000BE402643CCF808681B4E34684F689C43D4
:1006F000FF0300D51C433460174E361D34684F6825
:100700009C43BF0300D51C433460134E0836346845
:100710004F689C43FF0200D51C4334600E4E0C36DC
:1007200034684F689C43BF0200D51C433460521CA0
:10073000102AFFF451AFBDE8F88F000044380240A2
:100740000030014000000240000402400008024066
:10075000000C024000100240003C014000690840CB
:1007600000D0012070470AB1816170470904FBE79E
:10077000014880687047000014000020024881682A
:100780000278114481607047140000200B4810B5B6
:10079000016841F400710160016841F48061016009
:1007A000016841F480710160032000F071F80020BD
:1007B00000F006F800F024F8002010BD003C0240D4
:1007C00070B50D4D04464FF47A712878B1FBF0F006
:1007D0000A490968B1FBF0F000F004FB48B9102C9D
:1007E00007D200222146501E00F032F800206C6033
:1007F00070BD012070BD000014000020200000200A
:100800000B4882B0016841F480410160006800F447
:10081000804000900648001F016841F0805101604F
:10082000006800F080500090072002B000F030B85F
:1008300044380240002809DB00F01F0201219140EA
:100840004009800000F1E020C0F80011704700006E
:10085000F0B40E4B1B680C46C3F30223C3F107052B
:10086000042D00D90425191D072901D2002300E019
:10087000DB1E012606FA05F1491E214099409E40E3
:10088000761E16403143F0BC00F059BF0CED00E07D
:10089000064900F0070208684FF6FF03184040EAD7
:1008A0000220034A10430860704700000CED00E08E
:1008B0000000FA052DE9F0470E46050065D0DFF887
:1008C0001481D8F80000F7B200F00F00B04207D250
:1008D00088F80070D8F8000000F00F00B04254D142
:1008E00028683D4C810712D5400703D5206840F4A5
:1008F000E05020602878000703D5206840F460406D
:1009000020602068A96820F0F00008432060287863
:10091000C0072DD0304968680839012812D0022854
:1009200013D0032811D00968890700292DDA21681E
:1009300021F0030101432160FFF71AFF814641F2D4
:10094000883A0EE009688903EFE709688901ECE756
:10095000FFF70EFFA0EB0901514502D90320BDE8C6
:10096000F0872068696800F00C00B0EB810FEFD1D0
:10097000D8F80010404601F00F01B14207D90770C6
:10098000006800F00F00B04201D00120E7E72878AE
:10099000400705D52068E96820F4E050084320604E
:1009A0002878000706D52068296920F4604040EACD
:1009B000C100206000F038F82168084AC1F3031133
:1009C000515CC8400649086006480068FFF7F8FE19
:1009D0000020C4E7003C0240083802400818000824
:1009E000200000201800002004480549006809681C
:1009F000044AC1F38221515CC840704720000020A6
:100A000008380240181800080448054900680968B9
:100A1000044AC1F34231515CC840704720000020B5
:100A20000838024018180008154810B5006810F082
:100A30000C02144813D04110042A0FD0082A0ED1FA
:100A40000F4C241F2268236802F03F025B0207D587
:100A50002068C0F38810A0FB010106E0084610BD25
:100A60002168C1F38811A1FB00010023FFF7AEFB51
:100A70002168C1F30141491C4900B0FBF1F010BDF0
:100A8000083802400024F4002DE9F84F04006ED02D
:100A90002078DFF83C93C007A9F104054AD009F19A
:100AA00004000168C1F38101012908D00068C0F386
:100AB000810002280AD1D9F80000400206D5286832
:100AC000800337D560680028E1D033E06068B0F576
:100AD000803F10D0B0F5A02F286810D020F48030CF
:100AE0002860286820F4802028606068A8B1FFF79B
:100AF0003FFE06460DE0286840F48030F4E740F4FD
:100B000080202860F7E700BFFFF732FE801B6428D3
:100B100073D828688003F7D50CE0FFF729FE064656
:100B200005E000BFFFF724FE801B6428F0D828688A
:100B30008003F7D42078DFF89C8280074FF0000A0A
:100B40003ED5A348001D016811F00C0F08D00068C5
:100B5000C0F3810002280BD1D9F80000400207D46D
:100B60002868800716D5E068012800D112E02BE143
:100B7000E068B8B10120C8F80000FFF7F9FD0646AB
:100B800005E000BFFFF7F4FD801B0228C0D82868ED
:100B90008007F7D52868216920F0F80040EAC100F5
:100BA00028600DE0C8F800A0FFF7E2FD064604E06B
:100BB000FFF7DEFD801B02281FD828688007F7D4C6
:100BC0002078000722D5824E83486169703671B162
:100BD00001210160FFF7CCFD074604E0FFF7C8FDE7
:100BE000C01B022809D830688007F7D50EE0C0F88E
:100BF00000A0FFF7BDFD074605E082E0FFF7B8FD66
:100C0000C01B02287DD830688007F7D420784007C1
:100C100068D5DFF8BCB100270BF13C0BDBF8000016
:100C2000C0000BD4DBF8001041F08051CBF800106D
:100C3000DBF80000012700F080500090674E30681C
:100C4000C00510D4306840F480703060FFF790FD2C
:100C5000009005E0FFF78CFD0099401A022850D85B
:100C60003068C005F6D55A4EA0686C3601280FD002
:100C70000528306810D020F001003060306820F086
:100C800004003060A068B8B1FFF772FD00900FE07B
:100C9000306840F00100F4E740F004003060F7E70E
:100CA000FFF766FD0099411A41F28830814266D80B
:100CB00030688007F4D50EE0FFF75AFD009007E09A
:100CC000FFF756FD0099411A41F28830814256D80B
:100CD00030688007F4D42FB1DBF8001021F0805188
:100CE000CBF80010A069C8B33949091D0968C1F3E0
:100CF000810102294AD00228504607D0C8F8600076
:100D000000E03CE0FFF734FD04463BE04746C8F80E
:100D10006000FFF72DFD064605E000BFFFF728FD48
:100D2000801B02282BD828688001F7D4D4E907015A
:100D30000843A16A2A4A490802EB0141626A41EA72
:100D40008211084394F82C1040EA0161C9F80010A0
:100D500001203866FFF70CFD044606E036E000BFD0
:100D6000FFF706FD001B022809D828688001F7D587
:100D70002CE000BFFFF7FCFC001B022802D9032077
:100D8000BDE8F88F28688001F4D41FE00128F7D06F
:100D9000D9F80000E26900F48001914214D1226A7E
:100DA00000F03F0191420FD147F6C071626A0140E5
:100DB000914209D1A26A00F44031914204D1E16A22
:100DC00000F07060884201D00120D9E70020D7E709
:100DD0000438024000004742800E47420070004045
:100DE0000000FFFF10B5401EB0F1807F01D301204D
:100DF00010BD4FF0E02460610F21601700F09FFCF0
:100E00000020A06107202061002010BD70477047BE
:100E100070B590F83C20012A2CD0012480F83C4089
:100E2000022280F83D2003685A689D6822F070060F
:100E30000A6832435A60104B02689A420ED0B2F1EF
:100E4000804F0BD00D4B9A4208D00D4B9A4205D0E3
:100E50000C4B9A4202D00C4B9A4204D1496825F0BF
:100E600080031943916080F83D40002180F83C10D8
:100E7000084670BD022070BD000001400004004023
:100E800000080040000C00400040014010B5040084
:100E900003D094F83D0010B107E0012010BD002000
:100EA00084F83C00204600F00DF8022084F83D0054
:100EB000211D206800F02CFB012084F83D0000205B
:100EC00010BD000008B500680B49884212D10B48DC
:100ED000016841F0040101600068002200F0040094
:100EE000009011461E20FFF7B3FCBDE808401E200D
:100EF000FFF7A0BC08BD00000008004040380240D9
:100F00000168CA6842F00102CA600068816801F0A5
:100F10000701062903D0016841F0010101600020AA
:100F200070470168CA6822F00102CA600068016A5D
:100F300041F21112114207D1016A9210114203D1FC
:100F4000016821F0010101600020704770B504467E
:100F500090F83C00012817D0012584F83C5002206D
:100F600084F83D002068826822F0770222F47F42F4
:100F700082600868502830D00DDC20284DD005DC78
:100F800098B310283BD148E0022070BD302844D0EF
:100F9000402834D139E0602828D0702806D0B0F538
:100FA000805F2CD0B0F5005F29D10AE0CB68D1E991
:100FB0000121206800F0F8FA2068816841F077018B
:100FC00009E0CB68D1E90121206800F0EDFA206842
:100FD000816841F48041816011E0CA6849682068F5
:100FE00000F0F4FA5021206807E016E0CA6849686A
:100FF000206800F0FCFA6021206800F0DFFA84F835
:101000003D50002084F83C0070BDCA6849682068E3
:1010100000F0DCFA40212068EFE722680146104624
:10102000EBE7704770B50446006801694FF00005B2
:10103000C943890715D4C168C943890711D4E91E7A
:10104000016101202077206880698007204602D056
:10105000FFF7E7FF04E000F098F8204600F096F86C
:10106000257720680169C943490717D4C168C94376
:10107000490713D46FF00401016102202077206832
:10108000806910F4407F204602D0FFF7CAFF04E0D9
:1010900000F07BF8204600F079F825772068016998
:1010A000C943090716D4C168C943090712D46FF0B0
:1010B00008010161042020772068C069800720466C
:1010C00002D0FFF7AEFF04E000F05FF8204600F02A
:1010D0005DF8257720680169C943C90617D4C1683E
:1010E000C943C90613D46FF01001016108202077AD
:1010F0002068C06910F4407F204602D0FFF791FFBE
:1011000004E000F042F8204600F040F8257720681F
:101110000169C943C90708D1C168C943C90704D1D6
:10112000891E0161204600F033F820680169C94337
:10113000090609D4C168C943090605D46FF08001C6
:1011400001612046FFF762FE20680169C943490634
:1011500009D4C168C943490605D46FF04001016153
:10116000204600F01DF820680169C94389060BD4A8
:10117000C168C943890607D46FF020010161204688
:10118000BDE87040FFF743BE70BD70477047000078
:1011900002488168491C81607047000000000020FF
:1011A000704770B5040004D094F83900002510B1E0
:1011B00006E0012070BD84F83850204600F022F887
:1011C000242084F839002068C16821F40051C160EE
:1011D000204600F01FFA2068016921F49041016166
:1011E0002068416921F02A0141612068C16841F409
:1011F0000051C160E563202084F8390084F83A008A
:10120000002070BD10B586B0044614216846FFF773
:1012100015F81349206888421FD11248002102683E
:1012200042F400320260006800F4003005900D487E
:101230001038026842F001020260006800F001000C
:1012400005900C2000900220CDE901010720CDE996
:10125000031069460448FFF7B7F906B010BD000057
:10126000004400404038024000000240FEE7000019
:101270002DE9F04387B014216846FEF7DFFF4848A8
:101280000024016841F004010160016801F00401DB
:101290000591016841F080010160016801F0800161
:1012A0000591016841F001010160016801F001014F
:1012B0000591016841F008010160016801F0080131
:1012C0000591016841F0020101600068354F00F0AE
:1012D00002000590002220213846FFF744FADFF88B
:1012E000C8803E15002231464046FFF73CFADFF841
:1012F000BC90002204214846FFF735FAF000009028
:101300002B48CDE9010469464046FFF75DF9052009
:1013100000902848CDE9010469464046FFF754F99A
:10132000022000902448CDE9010469464046FFF7B9
:101330004BF9202000900125CDE90154694638463B
:101340000394FFF741F90096CDE901546946404600
:101350000394FFF739F904200090CDE90154694660
:1013600048460394FFF730F9002211460620FFF7A4
:101370006FFA0620FFF75EFA002211460720FFF7FA
:1013800067FA0720FFF756FA002211460820FFF7F8
:101390005FFA0820FFF74EFA07B0BDE8F0830000BF
:1013A000303802400000024000080240000C0240B9
:1013B00000002110000011100000311010B586B09F
:1013C0000024164800940194029403940494124952
:1013D000059401608221C0E901140121C0E90314D0
:1013E0008461FFF753FD08B1FFF7A3F84FF4805075
:1013F000009069460948FFF7A9FD08B1FFF799F881
:10140000049404A905480594FFF702FD002801D0C3
:10141000FFF78FF806B010BD000800402400002040
:101420000C4810B50A4901604FF4E13141600021D8
:1014300081600C22C160C0E904128161C161FFF7C3
:10144000B0FE002803D0BDE81040FFF772B810BD11
:101450000044004064000020FEE77047704770477A
:10146000FFF78CB930B593B030216846FEF7E6FE41
:1014700014210CA8FEF7E2FE19480025016841F08E
:1014800080510160006800F080501190154801689B
:1014900021F4404141F4004101600068022400F45D
:1014A0004040119001200090000401908001CDE99E
:1014B0000640042008905420CDE9090407200B9031
:1014C0006846FFF7E1FA0CA90F2081E83100E0023D
:1014D000CDE90F0502210CA8FFF7ECF913B030BDE0
:1014E00040380240007000400548016841F4700136
:1014F000016003494FF000608039086070470000C8
:1015000088ED00E00148FFF78DBD000024000020B9
:10151000F0B502681D4B1E4C9F031E4D1E4E984297
:1015200007D0B84205D0A04203D0A84201D0B042B3
:1015300004D122F0700C4A6842EA0C02984210D0A2
:10154000B8420ED0A0420CD0A8420AD0B04208D077
:10155000124CA04205D0124CA04202D0114CA04225
:1015600003D122F44074CA6822434C6922F08002FD
:10157000224302608A68C2620A688262984201D18C
:101580000969016301214161F0BD000000000140D3
:101590000004004000080040000C004000400140F2
:1015A000004401400048014010B5846842EA03222B
:1015B00024F47F440A432243826010BD826822F0F3
:1015C00070020A4342F007018160704710B5036A58
:1015D000046A24F001040462846924F0F00444EAFB
:1015E000021423F00A020A438461026210BD10B59E
:1015F000036A23F0100303628369046A23F47043CF
:1016000043EA023224F0A00343EA0111826101623D
:1016100010BD00002DE9F041044600680169E26850
:1016200021F44051114301612169A068E269084336
:101630006169114308432168CA6849F20C639A43FF
:101640000243CA6020684169A26921F440711143D4
:101650004161E069192764253226B0F5004F354A0B
:10166000354920684FF0000806D0884201D09042EA
:1016700036D1FFF7C9F935E0884201D0904202D156
:10168000FFF7C2F901E0FFF7AFF961684A18A0FB64
:10169000070148EB0803FEF799FD0146B0FBF5F0A2
:1016A0000201B1FBF5F06FF01803584301EB800025
:1016B00006EBC000B0FBF5F000F0F80002EB4002D2
:1016C000B1FBF5F0584301EB800006EBC000B0FB26
:1016D000F5F000F00700216810448860BDE8F08153
:1016E000FFF782F961688B0F8A00A0FB0701FEF704
:1016F0006DFD0146B0FBF5F06FF01802504301EBB1
:10170000800006EB0010B0FBF5F000F0F002B1FB3A
:10171000F5F002EB0012B1FBF5F06FF0180358433F
:1017200001EB800006EB0010B0FBF5F000F00F00BD
:10173000D1E700000014014000100140FEE7090756
:10174000090E002804DB00F1E02080F80014704747
:1017500000F00F0000F1E02080F8141D704702E057
:1017600008C8121F08C1002AFAD17047704700202C
:1017700001E001C1121F002AFBD17047FFF706F8F4
:10178000FFF770FEFFF774FDFFF718FEFFF748FE46
:10179000194DDFF868801A4C4FF4005700264FF4BB
:1017A000806939462846FEF7D9FF48B101224946EB
:1017B00028462660FEF7D7FF0022042140460FE0AE
:1017C0001420FEF7B7FE0F48FFF79AFB0122042111
:1017D0004046FEF7C8FF206828B101224946284646
:1017E000FEF7C1FFDDE7002249462846FEF7BBFFB2
:1017F000A0686060D5E7000000080240000C0240CD
:101800000000002024000020000000000000000074
:101810000102030406070809000000000102030496
:101820004018000800000020240000005E17000897
:101830006418000824000020840400006E170008CB
:101840000000000000000000000000000000000098
:101850000000000001000000100000000000000077
:041860000024F4006C
:040000050800019559
:00000001FF
